:020000041001E9
:1000000000280030D92C0110AF2C0110AF2C0110AA
:1000100000000000000000000000000000000000E0
:10002000000000000000000000000000AF2C0110E4
:100030000000000000000000AF2C0110AF2C0110E8
:10004000AF2C0110AF2C0110AF2C0110AF2C011000
:10005000AF2C0110AF2C0110AF2C0110AF2C0110F0
:10006000AF2C0110AF2C0110AF2C0110AF2C0110E0
:10007000AF2C0110AF2C0110AF2C0110AF2C0110D0
:10008000AF2C0110AF2C0110AF2C0110AF2C0110C0
:10009000AF2C0110AF2C0110AF2C0110AF2C0110B0
:1000A000AF2C0110AF2C0110AF2C0110AF2C0110A0
:1000B000AF2C0110AF2C0110AF2C0110AF2C011090
:1000C000AF2C0110AF2C0110AF2C0110AF2C011080
:1000D000AF2C0110AF2C0110AF2C0110AF2C011070
:1000E000AF2C0110AF2C0110AF2C0110AF2C011060
:1000F000AF2C0110AF2C0110AF2C0110AF2C011050
:10010000AF2C0110AF2C0110AF2C0110AF2C01103F
:10011000AF2C0110AF2C0110AF2C0110AF2C01102F
:10012000AF2C0110AF2C0110AF2C0110AF2C01101F
:10013000AF2C0110AF2C0110AF2C0110AF2C01100F
:10014000AF2C0110AF2C0110AF2C0110AF2C0110FF
:10015000AF2C0110AF2C0110AF2C0110452C011059
:10016000AF2C0110AF2C0110AF2C0110AF2C0110DF
:10017000AF2C0110AF2C0110AF2C0110AF2C0110CF
:10018000AF2C0110AF2C0110AF2C0110AF2C0110BF
:10019000AF2C0110AF2C0110AF2C0110AF2C0110AF
:1001A000AF2C0110AF2C0110AF2C0110AF2C01109F
:1001B000AF2C0110AF2C0110AF2C0110AF2C01108F
:1001C000AF2C0110AF2C0110AF2C0110AF2C01107F
:1001D000AF2C0110AF2C011000F002F800F0B5F8C0
:1001E0000CA030C8083824182D18671EA246AB464C
:1001F00054465D46AC4201D100F0A7F87E460F3E62
:10020000B6460FCC0126334200D0FB1A3343A24638
:10021000AB46184794A40000B4A4000000230024B7
:1002200000250026103A01D378C1FBD8520700D32D
:1002300030C100D50B60704710B56E2902D100F0B7
:10024000B1FE10BD702902D100F0F3FA10BD66298D
:1002500002D109F0BFF810BD652902D109F0BAF842
:1002600010BD672902D109F0B5F810BD612902D18E
:1002700009F0B8F810BD03681B0A01D380231943A5
:10028000692902D100F028FA10BD642902D100F0DA
:1002900023FA10BD752902D100F01EFA10BD6F2996
:1002A00002D101F061F910BD782902D100F0AEFA57
:1002B00010BDE92902D100F045FA10BDE42902D1B0
:1002C00000F040FA10BDF52902D100F03BFA10BD54
:1002D000EF2902D101F054F910BDF82902D100F044
:1002E000A3FA10BD0368DB0901D3802319436329F6
:1002F00002D101F098F810BD732902D101F09BF8EA
:1003000010BDE32902D101F08EFE10BDF32902D108
:1003100001F091FE10BD002010BD1FB5009801999D
:1003200000F065FD00F046FD04000020002109F00A
:1003300025F8401C60600020002109F035F8E060DD
:1003400001F03CFB00F01EFD1FBD0648854603B4CE
:1003500006F028F903BC02F07AFA02F086FA06F0F9
:10036000DBFB00000028003070B505460C46164641
:1003700002E00FCC0FC5103E102EFAD2082E02D389
:1003800003CC03C5083E042E07D301CC01C5361F9C
:1003900003E021782970641C6D1C761EF9D270BDB3
:1003A0007046F0477047000010B500F003FD001DD7
:1003B00010BD00BFC98F000000487047282B0030D7
:1003C00070B508F095FF0123044600221B07C01AF0
:1003D000914101D3002070BD204602F04EFA050085
:1003E00002D0214600F082FC284670BD70B506465A
:1003F00000F0DCFC056830460B30C408E400B44271
:1004000001D8002070BD68682A46002818D001680D
:10041000A14211D30B46214608318B4208D34368D1
:1004200001194B6003681B1B0B605160046001E005
:1004300041685160001D70BD024640680028E6D149
:100440002146284600F0BEFC0028DCD170BD70B506
:100450000446051F00F0AAFC0068002C1AD044686E
:1004600001E020466468002C01D0AC42F9D3016859
:100470000A18AA4204D12A6805468918016000E0DA
:10048000456028684119A14205D161686960216809
:100490004018286070BD6C6070BD10B5202A04DB68
:1004A0000146203A9140002010BD914020239C1A23
:1004B0000346E3401943904010BD10B5202A04DBE9
:1004C0000846203AD040002110BD0B462024D340DE
:1004D000D040A21A91400843194610BD43435143EE
:1004E00030B55C18010C130C0D4692B25D4380B21E
:1004F00051432C19054655430A0C09044D19624114
:100500005843010C00044019514130BDFEB5054669
:1005100010460C46184373D0AE468C460020AD1AE8
:1005200001469C4167D36646002701243D46B61A22
:100530009D4102D313463A462124654676462F0450
:10054000360C3E432D0CB61A9D4104D3150C1B04EA
:100550002B4312041034654676462F06360A3E4376
:100560002D0AB61A9D4104D3150E1B022B4312020D
:100570000834654676462F0736093E432D09B61ADC
:100580009D4104D3150F1B012B431201241D654609
:100590007646AF07B6083E43AD08B61A9D4104D370
:1005A000950F9B002B439200A41C65467646EF07EF
:1005B00076083E436D08B61A9D411AD392185B41E6
:1005C000641C16E00018764665464941B71A9D41FD
:1005D0000191009009D36046B11A98418E46844635
:1005E000009801990025401C6941DD0752082A4303
:1005F0005B08641EE6D57246634603B0F0BDFFE7B4
:1006000000200146C046C0462A462346F5E710B5FD
:100610000B460146184600F013FF10BD0FB4054904
:1006200010B503AA029800F00BFF10BC08BC04B080
:1006300018470000802B003070B5044685690068BB
:10064000C10601D5302600E02026C00707D070BDC6
:1006500062683046A1689047206A401C20626D1E87
:10066000F6D570BD70B5044685690078C00707D11E
:1006700070BD6268A16820209047206A401C2062FB
:100680006D1EF6D570BD70B50C460546012A05D025
:100690002878800600D5EA69002302E0012305E0FE
:1006A0005B1C934202D2E05C0028F9D1A869E618ED
:1006B000C01AA861286AC01828622846FFF7BCFF44
:1006C00004E06A682078A968641C9047B442F8D3B3
:1006D0002846FFF7C7FF70BDF7B5002575291068DC
:1006E000009914A611D000F0F3FB002802DA404272
:1006F00011A608E0009909688A0701D50FA602E053
:10070000490704D50EA6012501E000F0EAFB009F91
:100710000024243704E001F09CFA30313955641C80
:100720000028F8D12B4632462146009800F0E2FB23
:10073000FEBD0000000000002D0000002B000000A6
:1007400020000000F7B5D21D0025D20815A6D20062
:10075000F52905CA11D0002A05DA0021404291414D
:1007600011A60A4608E0009909688B0701D50FA673
:1007700002E0490701D50EA601251146009F00247D
:10078000243704E000F067FB30323A55641C02461F
:100790000A43F7D12B4632462146009800F0AAFBC7
:1007A000FEBD0000000000002D0000002B00000036
:1007B00020000000F8B50F460188090502D5224C3B
:1007C0007C4402E0204C7C440E3405460021243554
:1007D00008E016071209360FA65D6E541E07324355
:1007E0001B09491C16461E43F3D1224604780023F8
:1007F000240705D5702F06D0002901D0022311321D
:1008000000F078FBF8BD01231032F9E770B504461B
:100810000D462146106800F064FB0023024629467D
:100820002046FFF7C7FF70BDD21DD308DB000CCBFD
:10083000C0E730B403682024126823430360082310
:10084000C36130BC0023B5E7308C0000F3B504462B
:10085000002081B020622046E1688847002872D0DD
:10086000252802D06268A168ABE0594F00267F447A
:100870002046E16888472028054608DB312D06D24E
:10088000781920380078002801D00643F0E7B00737
:1008900001D5042086430020E0610746A0612A2D8F
:1008A0000AD0284608F054FD002827D0B8000019C7
:1008B000303D0090856119E00298BA00121902C813
:1008C000916102902046E1688847012F054617D1C3
:1008D000E06900281FDA202086431CE000980A21E6
:1008E0008069484300994019303888612046E168A2
:1008F0008847054608F02CFD0028EFD1012F0AD0CB
:100900002E2D08D12046E168884705462020064361
:100910007F1C022FC3DBA069002803DA4042A061DC
:1009200001200643F00701D0102086436C2D0BD028
:10093000682D09D04C2D3CD06A2D38D0742D38D07C
:100940007A2D36D016E040E0E1682F4620468847F1
:10095000B842054609D16C2F29D001208002E168F8
:10096000064320468847054604E06C2F1DD0FF2033
:1009700001300643002D28D028464138192803D8D5
:100980000120C00206432035204626602946029AEF
:100990001646FFF751FC002810D001280BD0F61D99
:1009A000F008C0000830029055E74020E1E78020C1
:1009B000D5E70020D3E7361D02964CE7626828464B
:1009C000A1689047206A401C44E7206AFEBD0000F1
:1009D000AA8B000010B5024908F0C1FC10BD000050
:1009E000802B003010B5044603E008F0B8FC401C32
:1009F00008D020780549641C0028F6D10A2008F0A8
:100A0000AEFC10BD0020C04310BD0000802B0030A4
:100A1000F7B516460C46104600F06EF82078611CBB
:100A200061280AD0722802D0772839D102E0012546
:100A3000002404E00225042401E02D4D08240222B4
:100A4000032301270878491C2B2806D0622807D0E9
:100A50002039C87F742807D008E01D431443F1E70C
:100A6000042005433C43EDE7102004430098214651
:100A700005F0C8FD411C13D00021316171600121D6
:100A8000F5604902F1617061200704D53046022209
:100A9000002100F07BFE306D384330653046FEBDEE
:100AA0000020FEBDF8B50D460646124C206DC1076C
:100AB00004D0410804D044086400F7E7224610E05F
:100AC000542001F0DAFE070010D07908206D4900AB
:100AD00001221143084354212065384600F008F9EB
:100AE0003A4629463046FFF793FFF8BD0020F8BD8F
:100AF000028000002C2B0030FEB5044646690069D8
:100B00000F4F0190E56800200090A80707D020460D
:100B100000F00CFF304605F05EFD002801DA384693
:100B2000FEBD280502D5019801F09DFE4C2120460E
:100B300000F0DEF8206D4008400020650098FEBD02
:100B4000FFFFFFFF30B503461D78002D08D00A4691
:100B50001478521C002C03D0AC42F9D15B1CF3E793
:100B6000181A30BD034610B50B439B070FD1042A5A
:100B70000DD308C810C9121FA342F8D018BA21BA61
:100B8000884201D9012010BD0020C04310BD002AB9
:100B900003D0D30703D0521C07E0002010BD037818
:100BA0000C78401C491C1B1B07D103780C78401C97
:100BB000491C1B1B01D1921EF1D1184610BD00002B
:100BC00030B5441C03E00178401C00290DD081079A
:100BD000F9D10B4BDD0104C8D11A91432940FAD059
:100BE000001B0A0603D0C01E30BD001B30BD0A0426
:100BF00001D0801E30BD0902FCD0401E30BD000077
:100C000001010101F8B5042A2CD3830712D00B7817
:100C1000491C0370401C521E83070BD00B78491CE3
:100C20000370401C521E830704D00B78491C0370CC
:100C3000401C521E8B079B0F05D0C91ADF002023D2
:100C4000DE1B08C90AE0FFF78FFBF8BD1D4608C987
:100C5000FD401C46B4402C4310C0121F042AF5D29C
:100C6000F308C91A521EF0D40B78491C0370401CBB
:100C7000521EEAD40B78491C0370401C012AE4D4AC
:100C800009780170F8BD134610B50446CAB219467A
:100C90001002821810048218204600F018F820462E
:100CA00010BDD2B210B513029A1813049A1800F0AE
:100CB0000EF810BD01E004C0091F0429FBD28B0708
:100CC00001D50280801CC90700D00270704700293E
:100CD0000BD0C30702D00270401C491E022904D366
:100CE000830702D50280801C891EE3E70022EEE71D
:100CF0000022DFE7024670B50A4392072AD11E4D53
:100D0000EE0104C808C9541B9443344017D0D0B234
:100D1000D9B2401A2106014310D190B299B2401ABB
:100D2000210401430AD110021902000A090A401ADB
:100D30002102014302D1100E190E401A70BD9A42D1
:100D4000DFD010BA19BA884201D9012070BD002045
:100D5000C04370BD02780B78401C491C002A09D0A2
:100D60009A4207D102780B78401C491C002A01D016
:100D70009A42EFD0D01A70BD01010101704770474F
:100D80007047000070B5064C7C44064D7D4403E07E
:100D9000206800198047241DAC42F9D170BD0000C5
:100DA000689A0000709A0000704700000048704781
:100DB000282C0030004870472C2C003070477047BA
:100DC0007047704738B504460A4600206946C04659
:100DD000C046002805D002462046009900F04DFF8D
:100DE000012038BD10B5012001F09EFC10BDF8B502
:100DF000C046C046054600200C461020C0460646A8
:100E0000A819A0420DD9324669460020C046C04606
:100E1000070001D101F088FC0098A04200D00546EF
:100E2000C419FFF7C3FFF61D07460560F008C000B0
:100E30004619284600F008F8B44204D03146386814
:100E4000A21B00F01AFFF8BD002101604160806024
:100E50007047102070470B4670B50246890780081E
:100E6000084319469D08141AA94125090807054396
:100E700008092C194841250A01060D43010A2C19BD
:100E80004141200C0D0428430D0C00194D41002157
:100E900040194D41C00869070843E908840F8D00D7
:100EA0002543840024184D4124196D41121BAB4188
:100EB00007E00925ED432C11521963410024401C21
:100EC00061411C460A250026551BB441F1D270BD74
:100ED00009684A0501D540B27047C905FCD500B282
:100EE000704709684A0501D5C0B27047C905FCD5ED
:100EF00080B27047FFB504460D4681B024300090A3
:100F00002168880604D51022E0699143216000E041
:100F10000120A84201DD471B00E000270498A169D9
:100F20007A191018081AA0612078C00602D4204649
:100F3000FFF782FB002608E003986268A168805DE5
:100F40009047206A401C761C206204988642F3DB9E
:100F50002078C0060AD52046FFF76EFB06E06268DF
:100F6000A16830209047206A401C206238467F1ECE
:100F70000028F4DC07E000986268A168405D9047B3
:100F8000206A401C206228466D1E0028F3DC2046A3
:100F9000FFF768FB2078000602D5022005B0F0BDFF
:100FA0000120FBE711680268006A530501D508704B
:100FB00009E0D30501D5088005E0130602D5C21764
:100FC00005C100E00860012070470000FFB50C4635
:100FD0001E468FB003CA089009914F007D0D00D1C5
:100FE0006D1E002108460020C0460321099A89058C
:100FF0000840002A03DA8200801840080840800D6B
:1010000001280A9002DD0020C0430A900898074397
:101010000DD0F048F04928184843071418980028C4
:101020001DD07542291E1DDD0A9842421BE018980A
:10103000012802D00020302104E00020F24305E026
:101040002154401CB042FBDB30460022189B00219B
:1010500021540F998B600A60486013B0F0BDBD1B2E
:101060006D1CDFE70A9A002900DA69420BA800F03C
:10107000E7FF0BAB07CB03AB07C30899099801F057
:101080004BF86B4607C30146D4480918002D009160
:101090000BDDD24903980A9A49424018002303A95C
:1010A0000390684601F0A8FA08E003990A9A002321
:1010B000081803A90390684601F048FA6B4607C375
:1010C0000004000C03D00020C043410800E010469B
:1010D000189A002A03D00022009215461EE0751EC1
:1010E00005D4FFF7B8FE303262556D1EF9D50122E6
:1010F0000843079602D000227F1C04E020783028A5
:1011000001D100227F1E002A069787D01EE0112DF4
:1011100007DAFFF7A0FE303262556D1C02460A4323
:10112000F5D1084303D00098002819D00EE0002123
:10113000681E05E0235C625C63542254401E491C17
:101140008142F7DBA81B401E07950690079A189965
:101150000020A0540F98079B069A81600CC07CE782
:1011600011260020189059E7D21DF0B50D4604460F
:10117000D10893B0C90003C90C900D9108F0D2F8C2
:1011800002460D98C00F01D02D2007E0206881078E
:1011900001D52B2002E04007C00F4001032A0F9029
:1011A00001D0072A05DB03462946204600F0ECFE65
:1011B0000EE12078800601D5E76900E00627284681
:1011C000652D04D0662814D0672D69D12DE000204C
:1011D000112F009001DB112300E07B1C0CAA03A956
:1011E00010A8FFF7F3FE1199002610987D1C0E91B0
:1011F00042E001203B460CAAC0070B900120009062
:1012000003A910A8FFF7E2FE119D1298109900267D
:1012100000280E9501D1781C0D18781B02D4464287
:101220007D1C761EE81B00903AE0012F00DA0127B2
:101230000020112F009001DD112300E03B460CAA95
:1012400003A910A8FFF7C2FE11993D461098002689
:101250000E91217809070BD40E99A94200DA0D46A8
:1012600003A9012D04DD4A19203AD27F302A06D085
:10127000B84201DA011D04DA012100910FE06D1E70
:10128000EFE7002802DC86192D1A03E0411CA94271
:1012900000DD0D46801B401C00900120C0070B9014
:1012A0002078000705D40098A84202DB0020C04344
:1012B000009069460020C8720B98012102AF0337E5
:1012C000C907884225D0022010902B2011900B983E
:1012D00000280BDA40420B902D20119006E00B986D
:1012E00000F0B7FC30317F1E0B9039701099481E0A
:1012F00000291090F3DC0B980028F0D111987F1E84
:1013000038702088000501D5452000E065207F1E4B
:10131000387001A8C01BC01D0B900F98002800D08A
:10132000012041190098C01709180B980818A169E5
:10133000081A401EA0612078C00602D42046FFF79C
:101340007BF90F98002805D06268A1689047206A51
:10135000401C20622078C00625D52046FFF76CF996
:1013600021E0002E07DB0E98B04204DD03A862687E
:10137000805DA16802E06268A16830209047206A21
:10138000761C401C20620098401E002800900AD164
:10139000FFF710FDC06862680168405CA168904773
:1013A000206A401C206228466D1E0028D9DC07E018
:1013B00062683878A1687F1C9047206A401C2062D0
:1013C0000B99481E00290B90F2DC2046FFF74AF9E2
:1013D000032042E601FCFFFF104D0000E1DFFFFFAC
:1013E00001694A1C02610878704700B58FB002910C
:1013F0000021059105490193794403911146049018
:101400006846FFF723FA0FB000BD0000E5FFFFFFBD
:1014100010B54369002B02D0C046C04601E0FFF77B
:1014200032F9012010BD1278014624310A700022E1
:101430004A700122ECE711680022D243E8E700007D
:10144000084B70B50D467B44FFF7CFFF0446284696
:1014500000F0A0F8002802D00020C04370BD204654
:1014600070BD0000157F0000F7B50446154686B034
:101470002B487844002703C83E460090019111E0B4
:1014800007986A46B100415802A801F026F9411CAC
:1014900007D02178890603D5E269391891420ED820
:1014A0003F18761C2078800602D5E069B84206DD38
:1014B000AE42E5DB0798B10040580028E0D1A069B2
:1014C000C01BA0612046FFF7B7F8154878445A388A
:1014D00003C800900020019116E081006A46079839
:1014E000415802A801F0F9F80590401C0AD00025E7
:1014F00005E0626802A8A168405D90476D1C0598F0
:101500008542F6D30498401CB0420490E5DB206A83
:10151000C01920622046FFF7A5F809B0F0BD000011
:10152000BA7F000070B504460021243408E0550756
:10153000D2086D0F303565545D072A43DB08491C1E
:1015400015461D43F3D10468002310A2250708D5D2
:1015500020252C400C4304D0C46901230CA2641E36
:10156000C461FFF7C7FC70BD10B504462146106882
:10157000FFF7B7FC002302462046FFF7D3FF10BD5C
:10158000D21DD108C9000CC9CCE700000000000042
:1015900030000000C068802108407047F8B505465B
:1015A0000C46C8680521C904884301218905084300
:1015B000E060800602D5204600F0DEF97149E0685F
:1015C0000140022903D0204600F080F9BCE005214B
:1015D000012249030140D20391420FD1C00306D535
:1015E0006168E06A884200D80846606006E02069C9
:1015F000E0626060606904F0F1FFA061A168002210
:10160000EEB200290EDAE06883050BD4C943A1606D
:101610000921226049030843E0606068411C616061
:101620000670ACE0E068012149030843E060002057
:1016300020602069002831D1606904F0E1FF0125B4
:1016400027462437ED02002816D0A0898005800F98
:1016500008D0E06901F011F90028206102D0E068AB
:10166000284318E001202761E061E06803210902B6
:101670008843012189020DE0E06901F0FEF80028AD
:101680002061EFD0E0682843E0608105890F03D135
:10169000FF2101310843E06020696060E2683A4F51
:1016A0002569D0051FD56168E06A884200D80846E0
:1016B000411B05D02246284600F012F9002843D1EC
:1016C000E068010204D5E56200206560A06053E097
:1016D000691CE1626160E169491E3843A160E06014
:1016E00030462E70F8BD100201D53A4009E060681E
:1016F000411C61600670E06838430A2EE06006D045
:101700000022E16A6068814203D90B4602E00122AF
:10171000F7E70346A7895B1B7F0504D4E7699F426F
:1017200001DD002A1ED0814200D801460F1A002098
:10173000E5626560002BA06009DD22461946284657
:1017400000F0CEF8002802D00020C043F8BD002FE2
:1017500008D0A069E5626560C01BA061E068102147
:101760000843E060E068000209D56168A069E562AD
:10177000491B40186560A0610120C043F8BD304698
:10178000F8BD00008210000000000100F8B504461A
:1017900016460D464769007B800730D0384604F076
:1017A0002FFF00282BD132461026002A25D0012AEF
:1017B00002D0022A23D104E0204600F06DFF451933
:1017C0001BE0384604F00AFFE16831430028E1607D
:1017D00004DA204600F07AF80120F8BDC9030BD5E1
:1017E0006268E16A914200D81146A26989182269AB
:1017F000891A814200DD08462D18002D01DA0220E9
:10180000F8BDE16A6068E268814206D29103E06255
:1018100003D5012149048A433243A669AE4211DC53
:10182000E16A814201D90B4600E003469F19236912
:10183000FF1AAF4206DD814201D90F4600E007469C
:101840009F4206D1202002430020A060A5622060B4
:101850000DE0AD1BE669AE1B8142A66000D90846CB
:10186000C01A281A2060581960602020824303485B
:1018700002400020E26040342072F8BDBFCFD7FFA5
:1018800070B5C468A50713D0650211D4D51FF93D02
:101890000AD0FF3D6D1E07D0FF3DFF3D022D07D151
:1018A00001462431012305E0074E5D1EB54201D3F8
:1018B000012070BD0161C36141600F2109028C43A9
:1018C0001443C460002070BDFFFFFF00C168802288
:1018D000114392039143C160002181600160704710
:1018E000F7B514460E463348D5685769054209D006
:1018F0003846A16904F0D4FE002811DB2D48C0430E
:101900000540E5602B4632463846009904F0CBFE90
:101910004200A1695208B21A89180028A16104D0B6
:101920002046FFF7D3FF0020C043FEBD70B504463C
:101930000569C06A6168884200D80846E1680522E6
:10194000D2049143E160C90314D5A84209D02246CC
:10195000411B2846FFF7C4FF002802D00020C043E7
:1019600070BDE56200206560A060E06801210904A7
:101970008843E060002070BD10B50446C068202197
:101980008843E060A16AA06988420ED02046FFF734
:10199000CDFFE06803210903884310210843E0607C
:1019A000A06AA0612069E06260600349E0680840C5
:1019B000E06010BD10000200BFBFFFFF10B543483C
:1019C0005421FFF795F942485421FFF791F9414816
:1019D0005421FFF78DF940483C493D4B404A016096
:1019E0003E4803603B4810605A1C0A65411C19655B
:1019F000012101653C48354A3AA17844FFF708F8CF
:101A0000002804D1384878440C3800F087FE384864
:101A10002F4A36A17844FEF7FBFF002804D1344852
:101A200078440C3800F07AFE32482A4A2FA17844D4
:101A3000FEF7EEFF002804D12E4878440C3800F061
:101A40006DFE40232148DC0000212246FFF718FFED
:101A5000002804D0244878445C3800F05FFE1C481D
:101A6000224640230021FFF70BFF002804D0204826
:101A700078445C3800F052FE1648224610230021BC
:101A8000FFF7FEFE002804D01A4878445C3800F0C6
:101A900045FE10BD0F4870B5006D44080B4864004A
:101AA000FFF72AF80A48FFF727F80A48FFF724F853
:101AB00009E0206D450820466D00FFF71DF820461F
:101AC00000F0D1FE2C46002CF3D170BD2C2B003041
:101AD000802B0030D42B0030E0290030E429003086
:101AE000E829003072000000C28200007700000088
:101AF000AF82000086820000002203098B422CD3B3
:101B0000030A8B4211D300239C464EE003460B434D
:101B10003CD4002243088B4231D303098B421CD3AF
:101B2000030A8B4201D394463FE0C3098B4201D3A1
:101B3000CB01C01A524183098B4201D38B01C01AD9
:101B4000524143098B4201D34B01C01A5241030950
:101B50008B4201D30B01C01A5241C3088B4201D3FF
:101B6000CB00C01A524183088B4201D38B00C01AAC
:101B7000524143088B4201D34B00C01A5241411AD3
:101B800000D201465241104670475DE0CA0F00D0B6
:101B90004942031000D3404253409C4600220309AF
:101BA0008B422DD3030A8B4212D38901FC2212BA35
:101BB000030A8B420CD3890192118B4208D389010D
:101BC00092118B4204D389013AD0921100E0890925
:101BD000C3098B4201D3CB01C01A524183098B4206
:101BE00001D38B01C01A524143098B4201D34B01EF
:101BF000C01A524103098B4201D30B01C01A524152
:101C0000C3088B4201D3CB00C01A524183088B42D8
:101C100001D38B00C01A5241D9D243088B4201D361
:101C20004B00C01A5241411A00D20146524110469F
:101C300063465B1001D34042002B00D549427047F8
:101C400063465B1000D3404201B50020C046C04649
:101C500002BD01468008081A02091018020A10186D
:101C6000020C1018C008820012185200891A01E0F4
:101C7000401C0A390A29FBD2704710B50346406858
:101C800001E003464068002801D08842F9D3186873
:101C9000C3188B4206D0CB1CD808C000001D411AC7
:101CA000521A0146081D0A6000F0DDFD10BD00005B
:101CB000D21DF0B504460D46D0088DB0C000466870
:101CC00007683146384607F02DFB0246F00F01D079
:101CD0002D2307E02068810701D52B2302E0400770
:101CE000C00F43016846002B037001D0012000E0C3
:101CF0000020032A0A9001D0072A04DB2946204647
:101D000000F042F92DE12078800601D40D2500E095
:101D1000E5697000400D0D2D01904BDA300D00216A
:101D20000B9008460020C046032189050840002E7C
:101D300005DA82008018C20F101840100840801584
:101D4000012801DD0020C043A9000023182906D383
:101D50009C460A460123183A1B07D34003E00122A0
:101D60001205CA4094460C31202902D33A46203944
:101D700000E032468A40002802DD002A06D119E040
:101D8000002817D10121C9078A4213D31946634697
:101D90007F185E41002806D10120C007824202D18F
:101DA000084687439E430B98310D814202D001982B
:101DB000401C01902088000502D57149794402E059
:101DC0006F49794419396B460A9830221A540A9897
:101DD0000A7C401C1A54401C0A900198002801DC1F
:101DE000302000E031201872019A0120002A02D030
:101DF000644BD21804E072003A4302D0614A521C8C
:101E00000192002D02DC2278120703D56A462E20AB
:101E1000507202200022864694460CE032033601BE
:101E2000120F6D1E8B5C02AA13546246521C401C9A
:101E30009446052A01DA002DF0DC002202AE08E00B
:101E40003B0F3F01CB5C521C6D1E3354401C082AD3
:101E500001DA002DF4DC23689A0601D511E0401E5A
:101E6000704504DD3218203AD27F302AF7D000289E
:101E700007DD3218203AD27F2E2A02D11A0700D469
:101E8000401E002D03DD3E223254401C6D1E497C55
:101E900031540199401C002906DA2D21471C315488
:101EA00001984042019003E02B21471C31540198D6
:101EB0007D21C900884206DBFFF728FE3030F0554F
:101EC0007F1C019101E0642808DB01986421FFF781
:101ED0001DFE3030F0557F1C019101E00A2806DB21
:101EE00001980A21FFF712FE3030F0557F1C01984F
:101EF0000A21FFF70BFE3031F1550A98A1697F1CCA
:101F00007A191018081AA0612078C00602D4204659
:101F1000FEF792FB216A6E460A980818206204E0D8
:101F200062683078A168761C90470A98401E0A9033
:101F3000401CF5D12078C00602D52046FEF77CFB78
:101F400002AE09E03078761C3E280DD06268A168A8
:101F50009047206A401C20627F1EF3D22046FEF785
:101F600081FB0DB00320F0BD206A4019206203E020
:101F70006268A168302090476D1EEDD3F8E700003D
:101F80008B76000001FCFFFFF8B51F4604460123D5
:101F90000068DB02032601461840072A05DB0028FB
:101FA00001D017A506E017A504E0002801D016A56A
:101FB00000E016A5102081432160A069C01E002FFB
:101FC000A06101D0401EA0612046FEF735FB002F26
:101FD00009D038466268A1689047206A401C206298
:101FE000C01C206206E0206AFAE762682878A168CF
:101FF0006D1C9047761EF8D22046FEF733FBF8BDE5
:102000004E414E006E616E00494E4600696E66009C
:1020100010B54369002B02D0C046C04601E0FFF76F
:1020200023FA012010BD12680146243142620022C9
:1020300082620122ECE711680022D243E8E7000047
:10204000F7B516468AB0334878446C4603467C336D
:10205000C06F5A689B680DC42E487844763003AC34
:102060000DC80DC43720C001081837211B30FFF7F9
:102070004DFD05460C46803D1B3C02D564420120C7
:1020800000E000200027099010E0E0070CD00C20B1
:1020900020497843794432464C3941186846012337
:1020A00000F054FA6B4607C364107F1C002CECD17F
:1020B000184F7F442E3F16E0E80712D02001C019C8
:1020C0000EC80691089307920068F04201D1981952
:1020D00008903246012306A903A800F037FA03ABA3
:1020E00007C36D10641C002DE6D10998002806D0A6
:1020F00032466946012303A800F07EFA05E0012379
:102100003246694603A800F021FA0A9B07C30DB0C6
:10211000F0BD000014740000034640000A4610B5EC
:10212000400D0BD00121C9070F24A40200191C0384
:1021300064082143540D2143D20207E0002101200D
:10214000F2E7D40F490021435200401E0029F8DA7B
:10215000DB0FDB07184310BDFFB50D46144685B0F5
:102160004868516807F0C4F800910190A868A16818
:1021700007F0BEF802910390A868616807F0B8F80C
:10218000029A12188242029201D2012000E000203D
:10219000019A0B18D2180028019202D08A4202D963
:1021A00003E08A4201D2012000E0002000990818D3
:1021B00000906868A16807F09BF8029A12188242A2
:1021C000029201D2012000E00020019A0B18D218DF
:1021D0000028019202D08A4202D903E08A4201D249
:1021E000012000E00020009908180090286821686C
:1021F00040004900400849084018FA49471814E0CF
:1022000001994000C90F08430090019802994000CD
:10221000C90F08430190029803994000C90F084371
:102220000290039840007F1E039000980028E7DA90
:102230000898002801D0EC4E00E00026B74201DAF1
:10224000012000E00020002804902AD0F71BF806A7
:10225000C00E15D0029B2021091A039A8B401A4305
:102260000392029A019BC2408B401A430292019A48
:10227000009BC2408B4000991A430192C1400091DB
:102280007B110DD06F460320C11A03D500218200B7
:10229000B95003E08A008100BA587A50401EF3D545
:1022A000374603980299002800D00120014308987E
:1022B0000291002808460CD0002800D00120019986
:1022C000019A490508430121D20AC902D2020192AA
:1022D00000E001210E9B0122D207012B02D0002B2E
:1022E00003D013E0002807D120E0904204D89042A8
:1022F0000CD1019B0B4209D0019B5918019105D1CA
:102300000099491C009101D17F1C009200280DD03A
:10231000102108460020C0460498002806D00F98D7
:10232000002803D0082108460020C04628682168FC
:10233000019B009A4840C10F0598C90739430EC058
:1023400009B0F0BDFFB587B0099A0898089953689D
:10235000926840688968964600220393174694461F
:10236000089A12685300099A5B08126852005208D2
:102370009A1A9E4BD4180A9A002A01D0352200E0FE
:10238000402206920022012315460492DB070593A2
:1023900024E0002D05D175460346039E4D1BB34135
:1023A00009D375466646039B491B049D9841059BCE
:1023B0007519AC465F4163463B4308D0059B049EBC
:1023C000DD0776082E435B080496059301E0521E54
:1023D000641EC50FED0749184041521C069B9A42E6
:1023E000D7DB002D04D17546039A6B1A824101D2C6
:1023F00003200CE0039A0B466B404240134303D08A
:10240000014303D0012002E0022000E000206146E9
:1024100001910021009702910A99002905D0614697
:1024200040020143704B019102E0800700230290BB
:102430009C4201DA012000E0002007003AD01A1B7C
:10244000D006C00E15D0029D2021019C091AC5405E
:102450008C402543029C8C4000D001242543019CE4
:102460000295009DC4408D4000992C430194C140C9
:10247000009154111DD06D460221002202290CD179
:102480000320001B07E0002804DB8600AE59002E65
:1024900000D00122401C0328F5DB081B02D5880070
:1024A0002A5004E08000285810438A00A850491E92
:1024B000E3D51C460A98002802980CD0002800D0CA
:1024C00001200199019A490508430121D20AC90254
:1024D000D202019200E00121109B0122D207012BC0
:1024E00002D0002B03D013E0002807D11FE0904258
:1024F00004D890420CD1019B0B4209D0019B591882
:10250000019105D10099491C009101D1641C0092F0
:1025100000280CD0102108460020C046002F06D00D
:102520001198002803D0082108460020C0460898CA
:102530000999019A009B006809684840C10F0798F3
:10254000C907214382600AC00BB0F0BD00B585B059
:10255000019300920A460146002302A8FFF7FCFD02
:1025600002A807C805B000BDFFB50A461F4685B0E2
:102570000799019301230091014602A8FFF7ECFDA2
:1025800002990398049ECA0F4900D20700920F22B5
:10259000490892028C1A0021002800DB0C464500F5
:1025A00013486D08844214D3079A002A04DA441EA3
:1025B0000026104DF64302E004460D460E4610215B
:1025C00008460020C046002F03D004210846002002
:1025D000C0462005E90A0843009908436905F20A44
:1025E0001143ADE602C0FFFF013C0000FF3F0000C9
:1025F000FF070000FFFFFF7F00B585B00193009249
:102600000A460146002302A8FFF79CFE02A807C85D
:10261000A8E7FFB50A461F4685B007990193012335
:102620000091014602A8FFF78DFE02990398049ECF
:10263000CA0F4900D20700920F22490892028C1A51
:102640000021002800DB0C46450011486D0884423B
:1026500014D3079A002A04DA441E00260D4DF643CF
:1026600002E004460D460E46102108460020C046F2
:10267000002F03D0042108460020C0462005E90AA7
:102680000843009908436905F20A114358E600001F
:10269000FF070000FFFFFF7F10B50146C2689007EB
:1026A00003D0900607D5886A0AE0FDF785FE012170
:1026B0000160881E10BD8B694868C0180B69C01A7C
:1026C00040310B7A002B02D0497A401A10BD110319
:1026D000FCD50028FADD401E10BDF8B516460C46A4
:1026E0000546FDF761FE0368FF200230C05C01284B
:1026F00007D0FF2C0FD8185D00280CD001202C70BB
:10270000F8BDFF333246214608331868C7182846FB
:102710000123B847F8BD0020C043F8BD10B500F054
:102720000FF800F007F810BD10B500F023F800F026
:1027300001F810BD10B5002801D003F04EFF10BD08
:1027400010B5014602A000F03DF8012010BD0000C8
:1027500053494752545245443A2052656469726560
:1027600063743A2063616E2774206F70656E3A203F
:102770000000000010B5012805D0002103A000F0E2
:1027800021F8012010BD09A1F8E700005349475284
:10279000544D454D3A204F7574206F662068656131
:1027A00070206D656D6F7279000000003A204865F9
:1027B0006170206D656D6F727920636F72727570D4
:1027C0007465640070B505460C460A2000E06D1C77
:1027D00003F082FF002D06D028780028F7D102E010
:1027E000641C03F079FF002C02D020780028F7D178
:1027F0000A2003F071FF70BD70B58C180578401C7D
:102800006B075B0F01D10378401C2A1106D10278B7
:10281000401C03E00678401C0E70491C5B1EF9D179
:102820002B0705D40023521E0DD40B70491CFAE768
:102830000378401CCB1A921C03E01D780D70491CD4
:102840005B1C521EF9D5A142D8D3002070BD47F2BF
:102850004010C3F2000048F20001C3F20101FDF78D
:102860005CBDFDF7ADBDFDF7F2BD80B504F0C2FD66
:1028700080BC01BC864604F0A3BBFDF7B7BD04F0E5
:10288000BBBDB0B5044660B1204600F07CF90546FA
:10289000204600F0BDF8284381B2042001B9084663
:1028A000B0BD0220B0BD38B146F6CC71C3F2000114
:1028B000096809B1096A08470220704739B146F62C
:1028C000CC72C3F2000212680AB1526A10470220A9
:1028D000704746F6CC71C3F20001096809B1096876
:1028E0000847022070473AB146F6CC73C3F20003A2
:1028F0001B680BB19B6918470220704746F6CC71E4
:10290000C3F20001086000207047F0B543680F2251
:102910001C4694434D680122AB4220D18A688168ED
:102920000025002C284609D0002005464E5957594D
:10293000774038432D1DA542F8D325469D420BD242
:102940005B1B521949190C781578654028435B1EAA
:10295000521C491C002BF6D141420143CA0F1046BC
:10296000F0BDF0B503AF83B06E46002202244FF6EF
:10297000FF73002945D031600023DA430224002888
:1029800073600ED146F6DC70C3F2000000684FF6AB
:10299000FF71C1F6FF51B1FBF0F14A1C4243002325
:1029A0001C4646F6D470C3F200000068C11D07251E
:1029B000A9436D46B5606D466D1AAD4682B0694655
:1029C0000860284603F0AEFE02B00028B0687268C6
:1029D00014D12846316803F02AFF0446020C4FF652
:1029E000FF70044209D146F6D070C3F200000168BE
:1029F00019B10720154688472A46B06885464FF624
:102A0000FF731C4010042043FC1F053CA546F0BD8D
:102A1000F0B581B00546022428B303F07BFE0646DC
:102A200003F06EFE46F6D877C3F20007386003F075
:102A30005DFE46F6DC71C3F200010860386840F2C2
:102A40002711B1FBF0F1491C414346F6D470C3F2A3
:102A5000000001603EB946F6D070C3F20000056088
:102A600000242046A847204601B0F0BD70B582B0D2
:102A700003460224D2B39068C0B30024E543022485
:102A80006BB946F6DC73C3F200031B684FF6FF74A4
:102A9000C1F6FF54B4FBF3F4651C5D43002446F615
:102AA000D873C3F200031B6816685268521EB2FB4B
:102AB000F3F2521C5A43B24218D846F6D473C3F20A
:102AC00000031B686E4632606918CA1800252B4641
:102AD00003F028FE50B946F6D070C3F2000001683A
:102AE00000292C4602D0042088470024204602B04A
:102AF00070BDF0B5A1B00446002602204CB30026FC
:102B00001F961E961EA843F20005C1F20205082278
:102B1000294603F083FED8B91EAF384603F011FFF3
:102B200001900420384303F00CFF022810D102A8C2
:102B30007021FEF7DDF84BF2D430C5F65120019933
:102B4000814205D102A87022294603F067FE28B110
:102B5000042081B23004084321B0F0BD02A8214610
:102B600003F0BFFE060C4FF6FF710842F1D142F6AA
:102B7000F060C3F20000016800200029E9D00620BF
:102B800088470020E5E7B0B5044603F03EFE022585
:102B900048B942F6F060C3F200000460002514B1A9
:102BA00000252846A0472846B0BDF0B583B0029264
:102BB0000F460646062005F00DF940F20001C5F269
:102BC00043514D1C98B17C68BB687268B168029E25
:102BD000B6686F4650C705F031F8FF21084206D1AC
:102BE00020200299486040F20005C5F2435528466E
:102BF00003B0F0BDF0B583B0044640F20005C5F265
:102C000043556E1C0168202914D3A06804F0E4FA2F
:102C100080B949F2F440C1F2010069460A46C8C8C9
:102C2000C8C21020606020462246FFF7BEFF06465D
:102C3000A84204D02168A068FEF758F83546284617
:102C400003B0F0BD10B501210A0442F20400C5F240
:102C500003000368134204D046F60673C3F2000370
:102C600011E003680322134204D046F60073C3F256
:102C7000000308E0036840F20032134208D046F631
:102C80000273C3F200031C880C431C80026010BD59
:102C90000468032292051442F9D0630246F60473D5
:102CA000C3F20003EFD402212402ECD4EEE7FEE7E6
:102CB000F0B500231C460125A5400D4207D015465E
:102CC0009D4003269E400768B7432F4307609B1C27
:102CD000641C102CEFD1F0BD80B500F07DFFFDF736
:102CE0007BFAFEE710B540F628014218445801214E
:102CF0008B071C420BD040F62C0280580904084276
:102D00001ED042F64040C3F2000000211DE01268D0
:102D10001A421BD140F6200281588023194381506A
:102D200040F62C014158012424040C40210C42F6A9
:102D30004044C3F20004217284589C43845005E04F
:102D400042F64040C3F2000001210172084610BD66
:102D5000F0B585B0044642F64046C3F200067268FC
:102D6000092101AB00F0E8FB3068C11E40F2FF15FD
:102D70000198012933D8800F03283FD372680721B7
:102D8000002520462B4600F065FB40F2084042F645
:102D90006047C3F20007275040F6380040F2FF11A9
:102DA0002150082120462A4600F009FC002855D170
:102DB00007210022204600F041FC40F62001625825
:102DC00040200243625061180A680242FCD1D420BC
:102DD00038584108F060316140F2FF153CE0800F47
:102DE000029823D03F2109040004084001A9498921
:102DF000014348024019401C41002BE00398C10BDD
:102E000007220A4004219140029A930040F6FC7484
:102E10001C40800F2043401C4843110C0F220A40E5
:102E20009040810A400AF060316115E00399CA0BB5
:102E30000723134004229A40830040F6FC741C4090
:102E4000890F2143491C5143000C0F22024091403D
:102E5000880A490AF1603061681C706105B0F0BDF4
:102E6000F0B589B0044640F2001540F200112C3153
:102E700000F005FD40F62002A15820200143A1509A
:102E8000A118A25802420AD042F64042C3F2000200
:102E9000127A002A00D1AEE00A680242FCD1002179
:102EA00020460A4600F0CAFB41F2000001E0089803
:102EB000401E089008980028F9D142F65C40C3F201
:102EC0000000012606704FF6FF70C0F20F0002905E
:102ED000029B40F2001255320821204600F0BAFA57
:102EE00008900898002843D0002120460A4600F0A8
:102EF000A5FB089502E00898401E08900898002855
:102F0000F9D1029B3721002520462A4600F0A2FA7B
:102F100008900898022861D10021204640F200154F
:102F20000F460A4600F08AFB089502E00898401E0A
:102F3000089008980028F9D146F68C70C3F200007A
:102F400001250570029B48F20002C4F2FF022046F0
:102F5000294600F07FFA022852D142F64040C3F2DF
:102F60000000076040F21010CFF6FF70401CCAE06E
:102F7000029B37210022204600F06CFA46F68C7046
:102F8000C3F200000670029B292148F20002C4F23D
:102F9000FF02204600F05EFA40F630002518205867
:102FA000F70514E0029B37210022204600F052FA78
:102FB00046F68C70C3F200000670029B2921204661
:102FC00048F20002C4F2FF0200F044FA28683842D6
:102FD000E8D0800D304002210A1A65E0089878B3E5
:102FE00042F64040C3F20000056040F21010CFF6F8
:102FF000FF70401D87E040F21010CFF6FF7082E0B6
:10300000019640F63001605866180095ED0528429B
:1030100046F68C77C3F200070CD101213970029B70
:10302000204648F20002C4F2FF0200F013FA3068B2
:103030002842F2D0800D00990840C21C019E33E066
:1030400046F68C70C3F200000670029B292148F2FC
:103050000002C0F2FF02204600F0FCF940F630000A
:103060003246261820581546D7050222384201D08C
:103070002E4619E00192029B37210022204600F0E3
:10308000E9F946F68C70C3F200000570029B292115
:10309000204648F20002C0F2FF0200F0DBF930687F
:1030A0003842E8D02E46019A42F64047C3F2000764
:1030B0003A600221002203AB204600F03DFA386856
:1030C000C01E01280AD835040321002320462A46C1
:1030D00000F0C0F9079048B97D6013E00321002299
:1030E0002046134600F0B6F9079008B107980AE0A9
:1030F00040F630002058000240F20001CFF6FF7188
:1031000001407960002009B0F0BDF0B581B00091B8
:10311000044640F200400226265020180168314241
:10312000FCD10127076040F600000321215025183B
:1031300028683842FCD142F64040C3F20000182112
:10314000FDF7D6FD2E6040F628002358B907194335
:103150004FF6FF72CBF6FF721A40009B9B0500D51D
:1031600011462150215840F200120A43225040F6E5
:103170002001625844F200000243625061180A685C
:103180000242FCD101B0F0BDB0B5044640F60400E7
:103190000021215040F6200021584FF6FF72CFF257
:1031A000FF020A4022502158092212060A432250E7
:1031B00021584FF6FF72CFF600720A402250215874
:1031C00001252A040A432250215847F6FF72CFF600
:1031D000FF720A4022502046FFF784FD68B1204666
:1031E000FFF73EFEC8B942F64040C3F20000006857
:1031F000032807D144F6206106E040F21010CFF614
:10320000FF70B0BD46F2A81100F039FB2046FFF771
:103210009FFD204600F03CFA00B1B0BD42F6584098
:10322000C3F2000005600020B0BDF0B58BB01746BA
:103230000D46069000200A9040F21010CFF6FF7065
:10324000C61C059373B142F64040C3F200004268C9
:1032500007210024069E3046234600F0FBF8079025
:1032600018B1079E30460BB0F0BD3B460495029462
:1032700040F62000351840F62C0032182868402708
:103280003843286028683842FCD1106880242042E6
:10329000F4D040F6380040F2FF11315042F6404081
:1032A000C3F2000000680128039202D0042800D075
:1032B0005B0240F62400335040F20840049931503C
:1032C000FF2105980491B0FBF1F000900890089A56
:1032D000002A45D042F64040C3F20000027A46F68A
:1032E0008D73C3F200030192029818702E684CF29D
:1032F000FF00CFF6FF70064009960498060409996E
:10330000314309910A99099E19B104210E432E6097
:1033100005E041F2072006432E6001210A91197849
:1033200021B9197811B9002AF9D143E040F21012FD
:10333000CFF6FF72961D039B19680420014291D0BD
:10334000D61D1868082108428CD00898401E0890A5
:1033500008980028019A46F68D73C3F20003C3D182
:103360000499009841430598401A0890089800284D
:10337000039B47D046F68D70C3F20000029901709E
:1033800029684CF2FF02CFF6FF720A4009924FF60D
:10339000FF71CFF60071099A0A4009920899090451
:1033A000099A0A4309920A9A099942B104221143DF
:1033B00029600AE040F21016CFF6FF7652E741F29C
:1033C00007221143296001210A910178002940F266
:1033D0001012CFF6FF7208D142F64041C3F200014D
:1033E000097AA9B301780029FCD0961D039B1868BF
:1033F0000421084200D135E7D61D1868082108428B
:1034000000D12FE70C21002206981E46134600F03B
:1034100021F8314640F21012CFF6FF72961D0028B7
:1034200000D01FE728683843286028683842FCD15C
:1034300008682042F6D0072100260698324600F0A0
:10344000FDF828683843286028683842FCD109E72D
:10345000164607E7B0B540F62404025140F62002B4
:1034600084584CF2FC05CFF6FF752540090229432C
:1034700003240C43845081188458022214406BB1F9
:10348000B4B1DB4342F64044C3F20004247A5B1C2F
:1034900042D0E4B30D681542F9D109E044B142F6D7
:1034A0004043C3F200031B7A8BB30B681342FCD179
:1034B00042F65C41C3F200010A78012A0CD140F6C1
:1034C00034028258D2B2552A06D040F630028258D1
:1034D0000F231340012B26D146F68C72C3F2000253
:1034E000117831B10021117040F62C020223835073
:1034F00020E040F62C01425840F21010CFF6FF7049
:10350000801D042300211A4200D00846B0BD40F2BD
:103510001011CFF6FF710DE0086844F2000202437B
:103520000A60022106E00020087040F21011CFF678
:10353000FF7109310846B0BD70B585B040F624046E
:10354000025140F6200402594CF2EE05CFF6FF7509
:1035500015400902294311220A4302510219055953
:1035600040F21011CFF6FF711024254208D042F628
:103570004045C3F200052D7AF5B115682542FCD10E
:1035800040F62C028258891D0424224214D00021C6
:1035900042586C466250091D1429F9D16846001D35
:1035A0000021009C0A4685582E0E240234439C506C
:1035B000121D102A2C46F6D1084605B070BD10B574
:1035C00040F62403C25040F62003C2584CF2F804DF
:1035D000CFF6FF7414400902214307220A43C25068
:1035E000C218C45840F21011CFF6FF7102231C42DA
:1035F00008D042F64044C3F20004247AE4B11468CF
:103600001C42FCD1146804231C4208D042F64044FA
:10361000C3F20004247A7CB114681C42FCD140F649
:103620002C0402190459881D1C4206D01268C81DBA
:10363000082300211A4200D0084610BD10B581B001
:103640000023009340F62403C25040F62003C258E2
:103650004CF2FE04CFF6FF7414400A02224301210B
:103660000A43C250C218C05808420DD042F640402A
:10367000C3F20000007A40F21013CFF6FF7300B9D6
:10368000009314680C42FAD1009801B010BD0000FC
:10369000F0B583B0044642F64040C3F200004268F1
:1036A00000230293072520462946FFF7D3FE029008
:1036B00010B1029803B0F0BD2B4640F6200026184A
:1036C00040F62C00019424183068402738433060BD
:1036D00030683842FCD1206880252842F4D042F678
:1036E0004040C3F200000068401E032800D9A3E058
:1036F000810001A251188F4600F006B800F045B8CD
:1037000000F078B800F07DB840F2084042F660441E
:10371000C3F20004019D2C5040F638002B5042F6B5
:103720004040C3F200004268372100232846FFF7DB
:1037300091FE02900028BCD1332100222846FFF7D9
:103740003EFF02900028B4D120780F2101400F29BC
:1037500009D1284600F0DDF80290029818B94CF221
:10376000503100F08CF842F64040C3F2000042684D
:10377000372100232846FFF76DFE0290002898D1DC
:1037800006210222002328462FE040F2084042F69C
:103790006041C3F20001019C215040F638002350E3
:1037A00042F64045C3F200056A68372100232046EF
:1037B000FFF750FE0290002800D07AE73321002264
:1037C0002046FFF7FCFE0290002800D071E76A68EF
:1037D000372100232046FFF73DFE0290002800D04D
:1037E00067E70621022200232046FFF733FE0290FE
:1037F000E8B15EE7306847F6FF71CFF6FF71014030
:103800003160062140F20012C0F2B7320023019865
:10381000FFF720FE0290002800D04AE730683843C6
:10382000306030683842FCD120682842F6D03068D9
:1038300048F200010143316040F2FF14621C102184
:103840000023019D2846FFF705FE0290002800D0C6
:103850002FE740F638002C50072100222846FFF7BA
:10386000EDFE30683843306030683842FCD140F6B5
:103870002800295801220A432A5000201AE7B0B52F
:103880000C4601200507FCF78BFD284240D10F2094
:10389000C04340F22025C4F200052858000D032142
:1038A0000140012908D0022909D042F6E06003292D
:1038B0000BD005F093FC04E005F096FC01E005F068
:1038C00099FC40F2E831B0FBF1F04CF250318C42FF
:1038D00001D34CF25034B0FBF4F25443001B511CA2
:1038E00000B9114640F20012FF2903D80020002938
:1038F0000A4603D0FF2000061106081829684FF673
:10390000FF72C0F2FF020A402A6029680143296061
:10391000B0BDF0B581B004460026009640F20841E3
:1039200042F66040C3F20000605040F638053F2781
:10393000675106214FF60172C0F2FF022046FFF7E1
:103940003EFE0090611940F20842A218012510B114
:10395000284601B0F0BD42F66040C3F200000346C5
:10396000008840BA0028F3D0988B40BA0028EFD1E5
:1039700013600F6006214FF60172C8F2FF02204665
:103980001F46FFF71CFE00900028E1D13B4640F6A1
:103990002001625840200243625061180A680242C6
:1039A000FCD1188840BA351A4541D1E7F0B589B045
:1039B0001C460F460021089140F21011CFF6FF710E
:1039C000C91C002B00D1E4E0039242F64041C3F24F
:1039D00000014A680721002605463346FFF73AFDF5
:1039E000059008B10599D4E03B460496029440F650
:1039F00020002F1840F62C002C182A463868402545
:103A00002843386038682842FCD12068802630423C
:103A1000F4D040F6380040F2FF11115042F6404019
:103A2000C3F200000068012801D0042801D10399E5
:103A300001E00399490240F62400115040F2084089
:103A400001921350FF210298B0FBF1F00090069014
:103A5000069AAAB342F64040C3F20000007A0390EF
:103A600046F68D72C3F20002049810703B684CF267
:103A70008000CFF60070034007930B0407981843AB
:103A800007900898079B18B1082003433B6005E0A6
:103A900041F60B1003433B6001200890107828B9D1
:103AA0000398002871D010780028FCD020680223E9
:103AB000184225D10698401E069006980028D3D1BA
:103AC000009841430298401A0690069800280198F1
:103AD0002FD046F68D71C3F20001049A0A70069841
:103AE0003A684CF28003CFF600731A400304134384
:103AF0000793089A079B2AB1082213433B6007E00B
:103B000023603CE041F60B1213433B600122089214
:103B10000A78002A019808D142F64042C3F2000216
:103B2000127A92B30A78002AFCD02168022211424C
:103B300024D1022121600C2100221346FFF78AFCC8
:103B4000019B40F21011CFF6FF71891D08BB386848
:103B50002843386038682842FCD120683042F6D0CB
:103B60000721002218461446FFF768FD38682843ED
:103B7000386038682842FCD121460AE0226040F2D1
:103B80001011CFF6FF71083103E040F21011CFF6AB
:103B9000FF71084609B0F0BD80B505F025FB42F67F
:103BA0001C21C3F20001086005F02AFB42F6202127
:103BB000C3F2000108604AF22011C0F20701401868
:103BC00044F24021C0F20F01B0FBF1F042F618219F
:103BD000C3F20001086080BD4EF60850CEF200002E
:103BE00040F20001C1F201010160704710B50446C6
:103BF000002041F2FF01C4F205018C4212DC40F2C8
:103C00000001C4F205018C4228D040F20011C4F238
:103C100005018C4227D041F20001C4F205018C421B
:103C200017D039E041F20011C4F205018C420BD0EB
:103C300041F20001C5F205018C420AD041F20011A7
:103C4000C5F205018C4227D140F20500C5F640704F
:103C50000DE040F20400C5F6007008E040F20200FA
:103C6000C5F6806003E040F20300C5F6C06005F0D1
:103C7000CDFA02280DD140F20010044340F20010AA
:103C8000C4F20500844208D110BC01BC864605F090
:103C9000C3BA800003A1085810BD10BC01BC864601
:103CA00005F0C0BA001BB700008000000000000053
:103CB00000000000000000001027000000000000CD
:103CC000001BB700F0B585B00091044649F6D0401E
:103CD000C1F2010001A96CC86CC143F61057C5F2CE
:103CE00080774FF6FF70C5F20600844216DC42F67C
:103CF000FF70C4F2070084422DDC40F20000C4F2E1
:103D0000070084425DD041F20000C4F20700844203
:103D100049D042F20000C4F2070015E042F6FF70FD
:103D2000C5F20700844227DC40F20000C5F207001C
:103D3000844246D041F20000C5F20700844232D0EE
:103D400042F20000C5F20700844242D143F6124716
:103D5000C7F28C7735E043F20000C4F207008442DA
:103D600026D044F20000C4F20700844225D045F278
:103D70000000C4F207000FE043F20000C5F20700A4
:103D8000844215D044F20000C5F20700844214D0EA
:103D900045F20000C5F2070084421AD143F6955758
:103DA000C7F2EC770DE043F69157C5F2A07708E033
:103DB00043F69347C7F2AC7703E043F61457C7F2D4
:103DC000CC77384605F022FA0646384605F030FA38
:103DD000471C002020630325E560A0684FF60F71A3
:103DE000CFF6F0710140A160012E02D105F0FCF97F
:103DF0000290009BABB1B00001A90858B0FBF7F1ED
:103E000058080818B0FBF3F0801E020C06D0D8004A
:103E10000818B0FBF3F00009801E01E029070843F1
:103E2000606205B0F0BDF0B587B01C46029201910A
:103E3000054649F6D040C1F2010003A9CCC8CCC167
:103E400043F61056C5F280764FF6FF70C5F20600B5
:103E5000854216DC42F6FF70C4F2070085422DDC75
:103E600040F20000C4F2070085425DD041F200003C
:103E7000C4F20700854249D042F20000C4F20700B4
:103E800015E042F6FF70C5F20700854227DC40F2DC
:103E90000000C5F20700854246D041F20000C5F29D
:103EA0000700854232D042F20000C5F20700854289
:103EB00044D143F61246C7F28C7635E043F2000057
:103EC000C4F20700854226D044F20000C4F2070085
:103ED000854225D045F20000C4F207000FE043F20E
:103EE0000000C5F20700854215D044F20000C5F27B
:103EF0000700854214D045F20000C5F20700854254
:103F00001CD143F69556C7F2EC760DE043F6915678
:103F1000C5F2A07608E043F69346C7F2AC7603E01C
:103F200043F61456C7F2CC76304605F06FF90746D3
:103F3000304605F07DF90646012F03D105F054F90E
:103F4000049001270C98019BC3B1B90003AA5158F2
:103F5000721CB1FBF2F259085118B1FBF3F1891E42
:103F60001E460B0C06D0F1005118B1FBF6F1090901
:103F7000891E02E0032212071143696202990C4371
:103F80000443EC6007B0F0BD10B542F68064C3F2A4
:103F90000004204601F041FB45F21D60C1F2010022
:103FA00040F20002C1F20102214610BC08BC9E464C
:103FB00002F0AEBA10B542F67064C3F200042046B7
:103FC00001F02BFB45F21D60C1F2010040F200023E
:103FD000C1F20102214610BC08BC9E4602F098BA0C
:103FE00010B546F6E474C3F20004204600F0F8FF72
:103FF00045F29900C1F2010040F20002C1F2010253
:10400000214610BC08BC9E4602F082BA80B542F63A
:104010008060C3F2000001F055F90021091A4841FF
:1040200080BD42F68060C3F2000001F021BAF0B515
:1040300083B0044643F20007C1F2020742F68065EE
:10404000C3F200053E462846314602F00EFA8619B4
:10405000384670308642F6D344F20005C1F20205BC
:10406000AE420BD24DF20000CEF6FD70311838464C
:1040700000F03BF80028224631D103E041F2000075
:1040800022183D46AE18AE4215D90192029442F66E
:104090008064C3F200042F462046394602F0E5F959
:1040A000C719B742F8D340F20000C1F208008742B6
:1040B0000299019A04D82846114600F016F80EE03D
:1040C0004CF20000CEF6FD703A18172083034AF236
:1040D0006820C1F20100FCF7A1FA0020C0430021D2
:1040E000091A4141084603B0F0BDF0B581B004465D
:1040F0000F180021C843A74213D9009142F68065EA
:10410000C3F200052846214602F0AFF906462846CC
:104110002146324601F04CF9341910B9BC42F1D3B2
:10412000009801B0F0BD0000F0B58DB00590002002
:104130000C46002900D1AEE042F68060C3F20000D8
:1041400002F08DF9024644F20001C1F20201B1FB16
:10415000F0F05043081A07D04AF21520C1F20100CE
:10416000FCF75CFA30BFFDE700270B9742F6F860DA
:10417000C3F200000C9044F20000B0FBF2F109928F
:1041800051430A91A268E068134603430834079438
:10419000002B019700D17BE0099B5B1E029300245A
:1041A000E343039342F67827C3F2000725460494BD
:1041B000234640E00B98002866D002990818B0FB0F
:1041C000F2F00027504308901DD00699541844F28D
:1041D0000000C1F202000E1800250C984119721956
:1041E00042F68060C3F20000099B01F07AF90746AD
:1041F00060190799096804F03BF909982D1817B957
:1042000008988542E9D3069D08984519002F3FD1AB
:1042100007980268406801210023AA4200D9194684
:104220001B1A434100B1194691BB00230A9942F67B
:104230007827C3F20007039C3C600695521B049E3E
:10424000764101248A42254600D8049D761E984175
:1042500000B9044600B1254605B911460B910AAADA
:1042600005980699FEF73FFB39684FF6FF7210423A
:1042700007D1481C099A05D130BF3968481CFBD0CA
:1042800000E0099A042995D004A0FCF7ABFB039F3A
:104290000198C01B78410DB0F0BDC0465B4552523D
:1042A000205D2041524D5F5543505F52656164204F
:1042B00072657475726E65642030206279746573FE
:1042C0000D00000070B50C4606468868FFF7AFFE8B
:1042D000002588B1204600F041F968B130462146FA
:1042E000FFF722FF40B105A0FCF77CFB204600F061
:1042F00017F800210D1A4541284670BD5B424F4F0B
:10430000545D20566572696679206E657720616319
:1043100074697665206669726D776172653A0D0021
:10432000F0B5A7B004460125002862D0204600F071
:10433000F9F800285DD0A068E168014326460836F8
:104340000225002955D002940CAD284603F0F4FD57
:1043500000212846019103F068FE04A82021FCF703
:10436000C7FC306858B30396054601E03DB330689A
:1043700044F200018D422F4601D344F2000744F27B
:104380000001C1F20201491B0A1842F68060C3F223
:10439000000042F6F866C3F2000631463B4600F0E4
:1043A000CDFF04460CA831463A4603F0F9FEED1B5A
:1043B000039E3168481B04F05BF8002CD6D00CAC8F
:1043C00004AD2046294603F021FD204603F0AFFD51
:1043D000029C1034202220462946FCF7C3FB00280B
:1043E000019D06D0204604F07DF804A804F07AF878
:1043F0000125284627B0F0BDF0B5A3B00D460290C8
:104400000020002900D188E049F20050C1F20100EB
:1044100020A91CC81CC105AE304603F08DFD00214B
:10442000304603F002FEA968E8680A460243009598
:1044300008350195002A50D0002344F2000242F6CC
:104440007825C3F200051E46039304931CE0219ACD
:10445000002A3FD0229905A803F0A2FE21988619D0
:10446000019F3968304604F003F878680024221A66
:10447000424139680123B14200D9234600B11346B5
:104480005BBB00220492209A039CE3432B60891BB0
:1044900023466341012791423C4600D8039C5B1EA2
:1044A000049B984100B9074600B13C4604B90A464E
:1044B000219220AA02983146FEF715FA29684FF694
:1044C000FF72104202D003E030BF2968481CFBD0C5
:1044D0000429BCD012A0FCF785FA05AD42F6F866B7
:1044E000C3F200062846314603F090FC284603F04C
:1044F0001EFD009C1034202220463146FCF732FB82
:104500000146012049B1204603F0ECFF42F6F86075
:10451000C3F2000003F0E6FF002023B0F0BDC04668
:104520000D000000B0B50024B0B10024E14342F614
:104530007825C3F200052960FEF7B5F94FF6FF7143
:10454000084209D100E030BF2868411CFBD0062892
:1045500001D1012400E000242046B0BDF0B585B0B3
:1045600001460020002967D0009142F68066C3F220
:104570000006304601F073FF05466F35B5FBF0F1DC
:104580004143681A019043F20004C1F20204274635
:104590003046394601F069FFC7192046703087421E
:1045A000F6D34DF20000CEF6FD703A1801982E1A9F
:1045B00044F20000401C86420AD2964210D94AF2C8
:1045C000D410C1F201003146FCF728F830BFFDE7F6
:1045D0001AA0314644F20002FCF720F830BFFDE794
:1045E00042F6F860C3F20000FF223146FCF759FBA7
:1045F00049F20C50C1F2010002A90A46A8C8A8C29B
:10460000009802F0C2F8014600204FF6FF721142F6
:1046100012D1039970290FD142F68060C3F20000D5
:1046200042F6F861C3F200012246334600F059FF1A
:1046300001460020401A484105B0F0BD5B4552528A
:10464000205D204865616465722070726F677261D9
:104650006D2073697A6520257520626967676572C8
:10466000207468616E206275666665722025640D2F
:104670000A0D0A00F0B5ADB01AA848242146FCF78F
:1046800037FB08AD28462146FCF732FB96A0FCF725
:10469000A9F92846FFF744FE46F69071C3F20001DF
:1046A0000B680024B3B142F6F461C3F200010A685A
:1046B00082B1C0CB099C6740089D6E403E43083BD9
:1046C00016B913785B1C02E01D605C600023137058
:1046D00009680C780126022814D0A8B9022C15D834
:1046E00008A8103003F0FEFE099B089A4AF28640A3
:1046F000C1F20100FBF792FF09981B9008981A90ED
:1047000031460FE083A00AE0032C07D34AF2214090
:10471000C1F201000321FBF781FF02E087A0FCF753
:1047200061F900210027F84342F67825C3F200051D
:104730002860069107967140059108AE38463146CB
:10474000FEF7BCF8334630331AAC214630310391C2
:104750002146103102910834314610310491083657
:1047600029684FF6FF72104202D003E030BF29687B
:10477000481CFBD0072912D1019346F69070C3F272
:104780000000006898B10368416809984140089AA0
:1047900053400B43012103B91946079D0BE04AF230
:1047A0009D40C1F201000021FBF738FF74E0099839
:1047B000089A079D29461A9B9A422A4600D93A46EA
:1047C0001B9DA842079B00D93B46A84200D01A4631
:1047D000002A52D10598014301294ED103CE01434D
:1047E000083E002949D04AF26B30C1F2010000278F
:1047F0003946FBF713FF08A93846FFF7FDFD0028EF
:104800005ED0049803F06EFE099B089A4AF2864037
:10481000C1F20100FBF702FF32684CF20100C0F266
:1048200005000121824200D33946706800B1394643
:104830000029079E49D009991B9108991A91226075
:104840006060029C049D0FCD0FC40FCD0FC4019C6E
:10485000039D0FCC0FC54AF29630C1F2010000252E
:104860002946FBF7DBFE1AA92846FFF72BFDB0B35C
:104870004AF24050C1F2010015E04AF2F630C1F2AE
:1048800001000021FBF7CAFE099B089A4AF2864004
:10489000C1F20100FBF7C2FE079E069830B14AF252
:1048A0009050C1F20100FCF79DF806E04AF270500A
:1048B000C1F20100FCF796F8002630462DB0F0BD9D
:1048C0004AF2C530C1F201006DE7172083034AF2B6
:1048D0005540C1F201000021FBF7A0FEDDE74AF2DE
:1048E0002050C1F20100E5E75B424F4F545D20418B
:1048F0006374697665206669726D77617265206997
:104900006E7465677269747920636865636B3A0DCC
:10491000000000005B424F4F545D20416374697694
:1049200065206669726D7761726520736C6F7420A3
:10493000697320656D7074790D0000005B455252FB
:10494000205D20416374697665206669726D7761C8
:10495000726520696E746567726974792063686531
:10496000636B206661696C65640D0000B0B542F64A
:104970006865C3F20005286870B1291D88420DD012
:1049800049F6C750C1F2010049F6DB51C1F20101FD
:10499000662202F0F5FB01E0281D286042F6242083
:1049A000C3F200000C300324016861B1001D641CD7
:1049B000102CF9D3FBF700FD182101602868C8B15D
:1049C0000021CC4304E00021C9430160286870B194
:1049D000291D884212D049F6C750C1F2010049F69C
:1049E000DB51C1F20101662202F0CAFB06E0281D7C
:1049F000286003E0281D28600020C4432046B0BD85
:104A000070B5054600240F2823DCA80042F62421B7
:104A1000C3F200010C580E18022D1ADC601C18D1CC
:104A2000284600F066FB044690B9284600F063FB78
:104A3000044668B942F66060C3F200000078BFF334
:104A40005F8F42F6AC64C3F200040121084202D039
:104A50003460204670BD42F66060C3F2000001F091
:104A600059FD0028F4D040F20C10411CE120430213
:104A700042F6AC64C3F20004204640F20C1200F08F
:104A80004AF842F66060C3F2000001F071FDDFE712
:104A900082B080B582B00593049238B104AA019225
:104AA00042F6D430C3F20000FBF7B1FD02B080BC87
:104AB00001BC02B00047002070470020704710B5CD
:104AC0000C4600203AB147F24800C3F2000003F060
:104AD0004BFF2070012010BD1C20C04370471520E3
:104AE000C043704700207047F0B581B014460D46B2
:104AF00062B147F24806C3F20006274629783046DD
:104B000004F012F87F1E6D1C002FF7D1204601B073
:104B1000F0BD0120704770B51D46044649F61040AF
:104B2000C1F201000830206047F22810C3F20000F3
:104B3000006850B947F24806C3F20006304603F059
:104B400029FF3046294603F07DFE204670BDFDF763
:104B50008ABE0000F0B581B004465820205C26468D
:104B6000583620B1E06D401CE065002575E000205E
:104B7000E065204600F03AF9054600286DD1E0686E
:104B800058B949F66450C1F2010049F67951C1F2B1
:104B90000101C82202F0F4FAE0682146243101251F
:104BA0002943406982004EF60853CEF200031B6889
:104BB0009A18116400280EDBC1084FF6FC72C1F68A
:104BC000FF720A401F210140012088404EF200116F
:104BD000CEF200015050606940F20011FEF795FAE4
:104BE0006069FEF7D1FA0F200705A07C0006000FD0
:104BF00001D0327813E042F64040C3F20000016871
:104C00000029284600D1084642F65841C3F2000167
:104C1000096800292A4600D10A460240327012B1C2
:104C2000E565002508E0207A0DA1FFF731FF327815
:104C30004FF25F05CFF6FF75207A10A1FFF728FF2E
:104C40002069384201D0606805E042F64040C3F276
:104C50000000C0686060211D0860284601B0F0BDFA
:104C60004661696C20746F20696E697469616C6952
:104C70007A6520636172640A00000000696E6974DD
:104C80002063617264203D2025640A00F0B585B080
:104C90001746049105460B9C684644600A9E0660D0
:104CA0002846039301F01FFB01464EF67442CFF6EF
:104CB000FF72501CA1B15820285C002810460FD06C
:104CC000780A0399CA050243700AE3050343686939
:104CD0000499FEF7AAFA18B14FF25F00CFF6FF7001
:104CE00005B0F0BD017270475821415C002019B930
:104CF0004EF67440CFF6FF707047B0B504465820AA
:104D0000215C25465835002059B1E06D022801D3B9
:104D1000401E06E0E06810B1406804F08FFA002001
:104D20002870E0650020B0BDF0B585B0174604914D
:104D300005460B9C684644600A9E0660284603931D
:104D400001F012FB01464EF67442CFF6FF72501C82
:104D5000A1B15820285C002810460FD0780A03998A
:104D6000CA050243700AE305034368690499FEF724
:104D70001DFE18B14FF25F00CFF6FF7005B0F0BD19
:104D8000416940F6080288188B580122134205D069
:104D9000026040F600000B5813430B5040F62C0302
:104DA000C818C958114206D046F68D71C3F20001E9
:104DB00001220A700260026840F200110A4200D02B
:104DC000016001680222114201D0022101600268E3
:104DD00042F200010A4200D00160026841F2000183
:104DE0000A4202D002680A4302607047F0B581B0FF
:104DF0000446007A68A1FFF74BFEE06B49F284613C
:104E0000C1F2010103F0CCFA0090206C49F2A861D4
:104E1000C1F2010103F0C4FA0646606C49F2CC61AC
:104E2000C1F2010103F0BCFA0746A06C49F2F0613F
:104E3000C1F2010103F0B4FA05460098314603F0CF
:104E40008BFA06463846294603F086FA0146304674
:104E500003F082FA0090E06C49F26061C1F2010156
:104E600003F09EFA0646206D49F23C61C1F2010151
:104E700003F096FA0746606D49F21861C1F201012C
:104E800003F08EFA05463046394603F065FA2946A6
:104E900003F062FA0146009803F05EFA0546401CF2
:104EA0006ED049F6D831C1F20101284601F040FE2A
:104EB000E06060B949F66450C1F2010049F67951E9
:104EC000C1F2010140F2911202F05AF9E068006863
:104ED000A84209D040F29110421C39A049F67951FC
:104EE000C1F2010102F04CF9E06B49F28461C1F2B8
:104EF000010103F08BFA206C49F2A861C1F20101B3
:104F000003F084FA606C49F2CC61C1F2010103F054
:104F10007DFAA06C49F2F061C1F2010103F076FA6A
:104F2000E06C49F26061C1F2010103F06FFA206D9B
:104F300049F23C61C1F2010103F068FA606D49F287
:104F40001861C1F2010103F061FA4FF6E070CFF68B
:104F50000F702E46064004F077F925616661E0681F
:104F6000006904F077F9E268121D07CA04F078F9C5
:104F7000E068406804F07AF904F07EF9002008E067
:104F80002068C26B0121204690474FF25F00CFF6A8
:104F9000FF7001B0F0BDC0465344204D5046205331
:104FA000657474696E67202620456E61626C6520A9
:104FB000534420495020436C6F636B0A000000008B
:104FC0005F7364685F6D6F64696E69742D3E6D6FA9
:104FD000646E616D65203D3D2073645F6D6F64009C
:104FE000F0B50021016244F68152C1F20102C261B2
:104FF0004AF20102CCF60F02426244F21872826257
:105000000163C06202461C324263017249F660428B
:10501000C1F20102083202604160CA43C16002610C
:10502000416145F21F62C1F201028263BFF36F8FDB
:10503000BFF34F8F5822815440F20D33F63340F2C4
:105040000D34F53440F20D35F73540F20D36F836B3
:1050500040F20D37FA3740F20D32F932C46304469C
:105060004034E8C4026540F20D324265C165F0BDCE
:1050700010B5044649F66040C1F2010008302060D6
:105080005820205C10B12046FFF737FE204610BCA8
:1050900002BC8E4601F0EDB910B5044649F66040F9
:1050A000C1F20100083020605820205C10B1204679
:1050B000FFF723FE204610BD1820C243002001B98F
:1050C000104670470168896A0847002070470168E8
:1050D0000B690021012218470168896908470368A4
:1050E0001B691847704701680B6900210A46184779
:1050F00070470020704700207047C068704700006C
:10510000F0B581B00E46054642F69461C3F2000147
:10511000086870B1091D88420DD049F6C750C1F228
:10512000010049F6DB51C1F20101662202F028F8C4
:1051300001E0081D086042F69060C3F200000468B8
:105140000DE0A76857B13846FBF73AFDB04205D1EC
:10515000384629463246FBF705FD50B36468002CFB
:10516000EFD1072E05D120A007222946FBF7FAFC34
:10517000C8B142F69461C3F20001086878B1091D14
:10518000002488422CD049F6C750C1F2010049F6EC
:10519000DB51C1F20101662201F0F2FF01E0081DBE
:1051A000086000241CE042F69C60C3F20000046822
:1051B00016E042F69461C3F20001086870B1091D5F
:1051C00088420DD049F6C750C1F2010049F6DB51C3
:1051D000C1F20101662201F0D3FF01E0081D086061
:1051E000204601B0F0BDC04664656661756C740010
:1051F000B0B505464068002438B1FFF77EFF0128AE
:1052000003D16868041F00B904462046B0BDB0B59C
:1052100005464068002430B1FFF76FFF18B9686891
:10522000041F00B904462046B0BD4168012001B901
:105230000846704780B54168002031B10846FFF745
:105240005CFF01460020401A484180BD006870475D
:1052500070B50E4604460025056045600DA1304638
:10526000FBF770FC361800E06D1C70192060715D52
:1052700019B12F29F8D1401C206025B906A009A139
:10528000292201F07DFF30462946FFF739FF606093
:10529000204670BD2F0000006C656E20213D20303F
:1052A000000000002E5C6D6265642D6F735C706C95
:1052B0006174666F726D5C46696C65506174682ECE
:1052C0006370700070B5044642F6A066C3F2000633
:1052D000306870B1311D88420DD049F6C750C1F217
:1052E000010049F6DB51C1F20101662201F048FFDD
:1052F00001E0301D3060204603F0C4FF0546204623
:1053000003F0C6FF01F0B8F8E0600020C44305B91F
:105310002C46306870B1311D88420DD049F6C75017
:10532000C1F2010049F6DB51C1F20101662201F030
:1053300027FF01E0301D3060204670BDF0B581B020
:1053400016460C46074642F6A065C3F200052868DB
:1053500080B1291D88420FD049F6C750C1F2010023
:1053600049F6DB51C1F201016622009301F008FF0A
:10537000009B01E0281D286038463146224601F096
:10538000D0FB0446286870B1291D88420DD049F62B
:10539000C750C1F2010049F6DB51C1F2010166229A
:1053A00001F0EEFE01E0281D2860204601B0F0BDAE
:1053B000F0B583B015460E460746501802903846A1
:1053C00003F06CFF0446384603F06EFF02990019A3
:1053D0000022D443814248D801920AD23846009430
:1053E0000C4603F067FFB4FBF0F14143601A009CE8
:1053F0003BD142F6A061C3F20001086870B1091DFB
:1054000088420DD049F6C750C1F2010049F6DB5180
:10541000C1F20101662201F0B3FE01E0081D08603F
:105420005DB13846314603F04BFF38B93846314656
:1054300003F040FF86192D1AF3D1019C42F6A061BA
:10544000C3F20001086870B1091D88420DD049F609
:10545000C750C1F2010049F6DB51C1F201016622D9
:1054600001F08EFE01E0081D0860204603B0F0BD8B
:1054700070B5054642F6A066C3F20006306870B10A
:10548000311D88420DD049F6C750C1F2010049F6DE
:10549000DB51C1F20101662201F072FE01E0301D14
:1054A0003060284603F012FF0021CC4300B90446C7
:1054B000E86808B100F0DBFF306870B1311D884248
:1054C0000DD049F6C750C1F2010049F6DB51C1F2D7
:1054D0000101662201F054FE01E0301D30602046DB
:1054E00070BDF0B585B0039316460F46044603F031
:1054F000CFFEB6FBF0F102904143751A204603F04F
:10550000CDFE01900494204603F0CEFE0022D44349
:10551000002F7BD0002D79D101994018039DA91946
:10552000814273D842F6A061C3F2000108680028E6
:1055300000920FD0091D88420ED049F6C750C1F223
:10554000010049F6DB51C1F20101662201F018FEAB
:10555000009A01E0081D0860002D42D001940498D3
:10556000314603F0A7FEB6FBF0F14143711A401A31
:105570008542039500D30546032039468143B9424D
:10558000029809D1854207D3B5FBF0F44443234682
:105590003A46039D049819E0A8420446049800D3B3
:1055A0002C46C06839462246FBF72CFB0298854200
:1055B00007D2011B0498C0680019FF22FBF771FB9A
:1055C00002980499CA680346039D0846314603F0D1
:1055D00083FE28B93F19A6192D1BC0D1009A00E0FF
:1055E000019A42F6A061C3F20001086890B1091D5A
:1055F00088420CD049F6C750C1F2010049F6DB5190
:10560000C1F201011446662201F0BAFD224610469D
:1056100005B0F0BD081D0860F9E770477047B0B5E8
:1056200070B118CA0122224015461D4345B16410CD
:1056300000190AB10268D358B0BC04BC964618479A
:10564000B0BDF0B5ADB00C9317460A460646806B68
:1056500080210A910DAC092802D380B20A90F46B24
:10566000D0003518686A24350B92C219706B082374
:105670002146FFF763FE0621C9438B1D08B118467A
:105680006FE00695329D608840F6FF7202400794F5
:10569000208800B2002857DB05911046083080B200
:1056A0000C994018B169884258D20193029504962A
:1056B00001200B99401A07990831083708254FF641
:1056C000FF76C0B2039013460B970A98441BA0B212
:1056D0009AB2824200D81C46099300273442049EA5
:1056E000069808D000680B9A8218706BA7B23B46E8
:1056F000FFF724FEA0BB08946846079C0460ED19E0
:10570000304603990C9E32462B4600F020FA0146A3
:105710000598401D29BBAE190C960B98C019074679
:10572000099B08981B1A00254FF6FF763342214645
:10573000CAD10498806B0C99491EB1FBF0F1491C49
:1057400041430298016007E0B06B0C99491EB1FB20
:10575000F0F1491C41432960002002E0059800E077
:1057600001982DB0F0BDF0B5AFB00A930446379F55
:1057700001253D60C8002618706A24360B928218F5
:10578000606B0DA90823FFF7D9FD0021CA4300284B
:1057900000D0A9E00796059708943B9802903A98A4
:1057A0000C9039980990389B36980490359E34981F
:1057B0000090002148F22034CEF6B85403920DAF89
:1057C0007F5C5740082278082F407F42274047409F
:1057D000521EF8D1491C04293A46F0D10020019606
:1057E00030800DA8018840F6FF760A4632401A80C4
:1057F0004FF200020A4009990A8040F6FF7246887B
:10580000300B0C9908701888511E89B2884203D059
:105810000899C989884264D216400B98024608321A
:10582000802106910FA90C910499A1B90A998E4281
:10583000069100990C910ED901990E808019C01D16
:105840000899896BB0FBF1F0401C4843029908604D
:10585000039A521F48E07EB3079BB0B2069981427B
:1058600000D3314609910B968EB218680A928218BD
:105870000898406B0C993346FFF760FDB8BB099B55
:10588000180410D0002039460C9A175C4F400821AC
:105890007A082F407F4227405740491EF8D1401CCC
:1058A000B0423946F0D10A9A92190B9EF61A4FF679
:1058B000FF700642079BD0D10E98B84211D10DA8B7
:1058C000408840F6FF71084001990880501E0899F1
:1058D000896BB0FBF1F0401C48430299086000223C
:1058E00002E000220598026010462FB0F0BD039A36
:1058F000FAE710B542F66460C3F200000078BFF327
:105900005F8F0121084204D042F6B060C3F200006C
:1059100010BD42F66460C3F2000000F0FBFD0028F9
:10592000F2D042F6B064C3F20004204600F0A4FCBA
:1059300046F2C920C1F2010040F20002C1F20102A8
:10594000214600F0E5FD42F66460C3F2000000F07D
:105950000FFED9E7F0B58BB0059206910790109C29
:105960001C4308A8048011990903129D2943418012
:10597000002209920120C14304914E1C48F22031BB
:10598000CEF6B851149B0293139F02E008ACA45CBE
:105990001E46E3B2734008245E0803405B420B409E
:1059A0007340641EF8D1521C042AEFD17DB100224D
:1059B000BC5C5C4008236608044064420C407440B0
:1059C0005B1EF8D1521CAA422346F1D100E01C46CE
:1059D00009940798816B0022082608AC092932D364
:1059E000C46B099B190E089AE171190CA171190A6F
:1059F00061712371110EE170110CA170110A6170B7
:105A0000227000210DB3089B0999217123700A0EA1
:105A1000E2710A0CA271090A6171190EE170190C88
:105A2000A170190A6170866B083EAE4200D32E4603
:105A30002046083039463246FBF7E4F8AD1B0396A2
:105A40000836079803E0039201E003910D4669468A
:105A50000C600699059C2246334600F078F808B1A0
:105A6000049819E034196DB1039838186946086034
:105A70000798069922462B4600F069F800280498FA
:105A80000AD164190798806B611EB1FBF0F1491CC3
:105A900041430298016000200BB0F0BDF0B5A1B009
:105AA000144605468269226083690020802B2FD32B
:105AB000803A2260C8002E18706A24368218686BFB
:105AC00001A98023FFF73AFC10BB0027802101A821
:105AD00042180020C343D35C4A1EFF2B14D1002A76
